:10016C0068656C6C6F2062756C65746F6F6368206A
:06017C00636172210A001C
:10002600750800750904120003E4F5907F01FE12BD
:1000360001357BFF7A01796C120109750D01E50D19
:1000460014601D14602B14603514603F14604D2439
:100056000570E80509E50970020508750D0A80DBDB
:100066007590AA7F037E00120186E4F5907F0A80D0
:1000760025759055120182E4F5907F64801875907D
:100086005A120182E4F5907F28800B7590A5120123
:1000960082E4F5907F28FE120186809FE4F5901297
:0E00A6000182E4F5907F64FE120186020041A3
:030023000200B424
:1000B400C0E0C0F0C083C082C0D075D000C000C012
:1000C40001C002C003C004C005C006C00730981AAE
:1000D400C29885990D7F2612001C120131AF0D12B2
:1000E400001C1201317F2612001CD007D006D00557
:1000F400D004D003D002D001D000D0D0D082D0839D
:05010400D0F0D0E03254
:1000030053890F758920758DFD758BFDD28E53989D
:090013000F759850D2AFD2AC2257
:06001C008F993099FD22CE
:100109008B0A8A0B890CAB0AAA0BA90C1201536042
:1001190016050CE50C7002050B14F9120153FF12B8
:08012900001C12013180DF22ED
:040131007F027E00CB
:10013500D3EF9400EE940040147D707C00ED1D70AB
:0D014500011CED4C70F7EF1F70E61E80E30B
:01015200228A
:04018200AF09AE080B
:0B018600EF1FAC0670011E4C70F6224B
:0300000002019169
:0C019100787FE4F6D8FD75810D02002691
:10015300BB010689828A83E0225002E722BBFE02AA
:09016300E32289828A83E49322DD
:00000001FF
