:1001EF0068656C6C6F2062756C65746F6F636820E7
:0601FF00636172210A0099
:0B021100090930303030303030300050
:100026001201D9E4F5907F01FE120003750C80756C
:100036000D807BFF7A0179EF120194E512B401037A
:10004600E4F512E50CD394B0400D7590AAE50C24A6
:1000560060FFE434FF8013E50CC39440501775909D
:1000660055C37460950CFFE49400FE12021DE4F57E
:10007600907F20802EE50DD394D040117590A57FFA
:10008600147E0012021DE4F5907F058016E50DC36F
:100096009420501575905A7F147E0012021DE4F5C7
:0E00A600907F05FE12021D8092E4F590808D81
:0300230002014097
:10014000C0E0C0D075D000C000309841C2988599F9
:1001500013E513B4660EE508700A750801F51485F9
:1001600013098029E5086401702305147409251416
:10017000F8A613E514B4070AE510B4990575120141
:100180008005E514B40706750800751400D000D08A
:04019000D0D0E032B9
:1001D900758920758DFD758BFD758780759850D251
:0601E9008ED2AFD2AC2261
:0C0205008F993099FD7F027E00020003FB
:100194008B158A168917AB15AA16A9171201C06008
:1001A4001A0517E5177002051614F91201C0FF129B
:0C01B40002057F027E0012000380DB22A7
:10000300D3EF9400EE940040147D707C00ED1D70DE
:0D001300011CED4C70F7EF1F70E61E80E33E
:0100200022BD
:0B021D00EF1FAC0670011E4C70F622B3
:030000000200B447
:0C00B400787FE4F6D8FD7581170200FB90
:1001C000BB010689828A83E0225002E722BBFE023D
:0901D000E32289828A83E4932270
:1000C000020026E493A3F8E493A34003F68001F230
:1000D00008DFF48029E493A3F85407240CC8C33341
:1000E000C4540F4420C8834004F456800146F6DF10
:1000F000E4800B0102040810204080900211E47E8D
:10010000019360BCA3FF543F30E509541FFEE49304
:10011000A360010ECF54C025E060A840B8E493A3CB
:10012000FAE493A3F8E493A3C8C582C8CAC583CAF6
:10013000F0A3C8C582C8CAC583CADFE9DEE780BEAE
:01021C0000E1
:00000001FF
